20241011-22:24:04.749339000 : 8=FIX.4.2|9=67|35=A|34=1|49=CLIENT|52=20241011-22:24:04.749|56=SERVER|98=0|108=30|10=148|
20241011-22:36:12.758488000 : 8=FIX.4.2|9=67|35=A|34=2|49=CLIENT|52=20241011-22:36:12.758|56=SERVER|98=0|108=30|10=151|
20241011-22:36:12.758631000 : 8=FIX.4.2|9=80|35=5|34=1|49=SERVER|52=20241011-22:36:12.758|56=CLIENT|58=Incorrect BeginString|10=060|
20241011-22:36:12.758678000 : 8=FIX.4.2|9=55|35=5|34=3|49=CLIENT|52=20241011-22:36:12.758|56=SERVER|10=112|
20241011-22:36:42.722478000 : 8=FIX.4.2|9=67|35=A|34=5|49=CLIENT|52=20241011-22:36:42.722|56=SERVER|98=0|108=30|10=148|
20241011-22:36:42.723012000 : 8=FIX.4.2|9=80|35=5|34=2|49=SERVER|52=20241011-22:36:42.722|56=CLIENT|58=Incorrect BeginString|10=055|
20241011-22:36:42.723160000 : 8=FIX.4.2|9=55|35=5|34=6|49=CLIENT|52=20241011-22:36:42.723|56=SERVER|10=110|
20241011-22:37:12.565505000 : 8=FIX.4.2|9=67|35=A|34=8|49=CLIENT|52=20241011-22:37:12.565|56=SERVER|98=0|108=30|10=154|
20241011-22:37:12.566070000 : 8=FIX.4.2|9=80|35=5|34=3|49=SERVER|52=20241011-22:37:12.565|56=CLIENT|58=Incorrect BeginString|10=059|
20241011-22:37:12.566203000 : 8=FIX.4.2|9=55|35=5|34=9|49=CLIENT|52=20241011-22:37:12.566|56=SERVER|10=116|
20241011-22:37:42.301413000 : 8=FIX.4.2|9=68|35=A|34=11|49=CLIENT|52=20241011-22:37:42.301|56=SERVER|98=0|108=30|10=188|
20241011-22:37:42.301861000 : 8=FIX.4.2|9=80|35=5|34=4|49=SERVER|52=20241011-22:37:42.301|56=CLIENT|58=Incorrect BeginString|10=051|
20241011-22:37:42.302028000 : 8=FIX.4.2|9=56|35=5|34=12|49=CLIENT|52=20241011-22:37:42.301|56=SERVER|10=149|
20241011-22:38:12.903169000 : 8=FIX.4.2|9=68|35=A|34=14|49=CLIENT|52=20241011-22:38:12.903|56=SERVER|98=0|108=30|10=197|
20241011-22:38:12.903615000 : 8=FIX.4.2|9=80|35=5|34=5|49=SERVER|52=20241011-22:38:12.903|56=CLIENT|58=Incorrect BeginString|10=058|
20241011-22:38:12.903693000 : 8=FIX.4.2|9=56|35=5|34=15|49=CLIENT|52=20241011-22:38:12.903|56=SERVER|10=158|
20241011-22:38:42.408061000 : 8=FIX.4.2|9=68|35=A|34=17|49=CLIENT|52=20241011-22:38:42.407|56=SERVER|98=0|108=30|10=202|
20241011-22:38:42.408391000 : 8=FIX.4.2|9=80|35=5|34=6|49=SERVER|52=20241011-22:38:42.408|56=CLIENT|58=Incorrect BeginString|10=062|
20241011-22:38:42.408510000 : 8=FIX.4.2|9=56|35=5|34=18|49=CLIENT|52=20241011-22:38:42.408|56=SERVER|10=164|
20241011-22:39:12.775363000 : 8=FIX.4.2|9=68|35=A|34=20|49=CLIENT|52=20241011-22:39:12.775|56=SERVER|98=0|108=30|10=202|
20241011-22:39:12.775754000 : 8=FIX.4.2|9=80|35=5|34=7|49=SERVER|52=20241011-22:39:12.775|56=CLIENT|58=Incorrect BeginString|10=068|
20241011-22:39:12.775866000 : 8=FIX.4.2|9=56|35=5|34=21|49=CLIENT|52=20241011-22:39:12.775|56=SERVER|10=163|
20241011-22:39:42.034596000 : 8=FIX.4.2|9=68|35=A|34=23|49=CLIENT|52=20241011-22:39:42.034|56=SERVER|98=0|108=30|10=196|
20241011-22:39:42.035203000 : 8=FIX.4.2|9=80|35=5|34=8|49=SERVER|52=20241011-22:39:42.034|56=CLIENT|58=Incorrect BeginString|10=060|
20241011-22:39:42.035353000 : 8=FIX.4.2|9=56|35=5|34=24|49=CLIENT|52=20241011-22:39:42.035|56=SERVER|10=158|
20241011-22:40:12.137820000 : 8=FIX.4.2|9=68|35=A|34=26|49=CLIENT|52=20241011-22:40:12.137|56=SERVER|98=0|108=30|10=192|
20241011-22:40:12.138408000 : 8=FIX.4.2|9=80|35=5|34=9|49=SERVER|52=20241011-22:40:12.138|56=CLIENT|58=Incorrect BeginString|10=055|
20241011-22:40:12.138550000 : 8=FIX.4.2|9=56|35=5|34=27|49=CLIENT|52=20241011-22:40:12.138|56=SERVER|10=154|
20241011-22:40:42.109100000 : 8=FIX.4.2|9=68|35=A|34=29|49=CLIENT|52=20241011-22:40:42.109|56=SERVER|98=0|108=30|10=197|
20241011-22:40:42.109411000 : 8=FIX.4.2|9=81|35=5|34=10|49=SERVER|52=20241011-22:40:42.109|56=CLIENT|58=Incorrect BeginString|10=097|
20241011-22:40:42.109529000 : 8=FIX.4.2|9=56|35=5|34=30|49=CLIENT|52=20241011-22:40:42.109|56=SERVER|10=149|
20241011-22:41:12.908819000 : 8=FIX.4.2|9=68|35=A|34=32|49=CLIENT|52=20241011-22:41:12.908|56=SERVER|98=0|108=30|10=196|
20241011-22:41:12.909525000 : 8=FIX.4.2|9=81|35=5|34=11|49=SERVER|52=20241011-22:41:12.909|56=CLIENT|58=Incorrect BeginString|10=104|
20241011-22:41:12.909655000 : 8=FIX.4.2|9=56|35=5|34=33|49=CLIENT|52=20241011-22:41:12.909|56=SERVER|10=158|
20241011-22:41:42.616212000 : 8=FIX.4.2|9=68|35=A|34=35|49=CLIENT|52=20241011-22:41:42.616|56=SERVER|98=0|108=30|10=198|
20241011-22:48:18.343427000 : 8=FIX.4.2|9=68|35=A|34=36|49=CLIENT|52=20241011-22:48:18.343|56=SERVER|98=0|108=30|10=206|
20241011-22:48:18.344493000 : 8=FIX.4.2|9=81|35=5|34=12|49=SERVER|52=20241011-22:48:18.343|56=CLIENT|58=Incorrect BeginString|10=110|
20241011-22:48:18.344616000 : 8=FIX.4.2|9=56|35=5|34=37|49=CLIENT|52=20241011-22:48:18.344|56=SERVER|10=168|
20241011-22:52:07.027456000 : 8=FIX.4.2|9=68|35=A|34=39|49=CLIENT|52=20241011-22:52:07.027|56=SERVER|98=0|108=30|10=201|
20241011-22:52:37.986639000 : 8=FIX.4.2|9=68|35=A|34=40|49=CLIENT|52=20241011-22:52:37.986|56=SERVER|98=0|108=30|10=210|
20241011-22:53:07.814920000 : 8=FIX.4.2|9=68|35=A|34=41|49=CLIENT|52=20241011-22:53:07.814|56=SERVER|98=0|108=30|10=199|
20241011-22:53:42.548412000 : 8=FIX.4.2|9=68|35=A|34=42|49=CLIENT|52=20241011-22:53:42.548|56=SERVER|98=0|108=30|10=203|
20241011-22:53:42.548616000 : 8=FIX.4.2|9=81|35=5|34=13|49=SERVER|52=20241011-22:53:42.548|56=CLIENT|58=Incorrect BeginString|10=111|
20241011-22:53:42.548665000 : 8=FIX.4.2|9=56|35=5|34=43|49=CLIENT|52=20241011-22:53:42.548|56=SERVER|10=164|
20241011-22:57:44.425642000 : 8=FIX.4.2|9=68|35=A|34=45|49=CLIENT|52=20241011-22:57:44.425|56=SERVER|98=0|108=30|10=206|
20241011-22:57:44.425899000 : 8=FIX.4.2|9=81|35=5|34=14|49=SERVER|52=20241011-22:57:44.425|56=CLIENT|58=Incorrect BeginString|10=112|
20241011-22:57:44.425952000 : 8=FIX.4.2|9=56|35=5|34=46|49=CLIENT|52=20241011-22:57:44.425|56=SERVER|10=167|
20241011-22:58:14.374581000 : 8=FIX.4.2|9=68|35=A|34=48|49=CLIENT|52=20241011-22:58:14.374|56=SERVER|98=0|108=30|10=210|
20241011-22:58:14.374987000 : 8=FIX.4.2|9=81|35=5|34=15|49=SERVER|52=20241011-22:58:14.374|56=CLIENT|58=Incorrect BeginString|10=114|
20241011-22:58:14.375146000 : 8=FIX.4.2|9=56|35=5|34=49|49=CLIENT|52=20241011-22:58:14.375|56=SERVER|10=172|
20241011-22:58:44.189694000 : 8=FIX.4.2|9=68|35=A|34=51|49=CLIENT|52=20241011-22:58:44.189|56=SERVER|98=0|108=30|10=211|
20241011-22:58:44.190178000 : 8=FIX.4.2|9=81|35=5|34=16|49=SERVER|52=20241011-22:58:44.189|56=CLIENT|58=Incorrect BeginString|10=122|
20241011-22:58:44.190346000 : 8=FIX.4.2|9=56|35=5|34=52|49=CLIENT|52=20241011-22:58:44.190|56=SERVER|10=164|
20241011-22:59:14.865236000 : 8=FIX.4.2|9=68|35=A|34=54|49=CLIENT|52=20241011-22:59:14.865|56=SERVER|98=0|108=30|10=213|
20241011-22:59:14.865714000 : 8=FIX.4.2|9=81|35=5|34=17|49=SERVER|52=20241011-22:59:14.865|56=CLIENT|58=Incorrect BeginString|10=122|
20241011-22:59:14.865863000 : 8=FIX.4.2|9=56|35=5|34=55|49=CLIENT|52=20241011-22:59:14.865|56=SERVER|10=174|
20241012-20:09:16.828332000 : 8=FIX.4.2|9=67|35=A|34=1|49=CLIENT|52=20241012-20:09:16.828|56=SERVER|98=0|108=30|10=151|
20241012-21:06:30.851055000 : 8=FIX.4.2|9=67|35=A|34=2|49=CLIENT|52=20241012-21:06:30.851|56=SERVER|98=0|108=30|10=142|
20241012-21:07:00.807157000 : 8=FIX.4.2|9=67|35=A|34=3|49=CLIENT|52=20241012-21:07:00.807|56=SERVER|98=0|108=30|10=142|
20241012-21:07:30.655453000 : 8=FIX.4.2|9=67|35=A|34=4|49=CLIENT|52=20241012-21:07:30.655|56=SERVER|98=0|108=30|10=147|
20241012-21:08:00.388956000 : 8=FIX.4.2|9=67|35=A|34=5|49=CLIENT|52=20241012-21:08:00.388|56=SERVER|98=0|108=30|10=149|
20241012-21:08:30.975529000 : 8=FIX.4.2|9=67|35=A|34=6|49=CLIENT|52=20241012-21:08:30.975|56=SERVER|98=0|108=30|10=155|
20241012-21:09:00.452987000 : 8=FIX.4.2|9=67|35=A|34=7|49=CLIENT|52=20241012-21:09:00.452|56=SERVER|98=0|108=30|10=144|
20241012-21:09:30.785372000 : 8=FIX.4.2|9=67|35=A|34=8|49=CLIENT|52=20241012-21:09:30.785|56=SERVER|98=0|108=30|10=157|
20241012-21:10:00.015671000 : 8=FIX.4.2|9=67|35=A|34=9|49=CLIENT|52=20241012-21:10:00.015|56=SERVER|98=0|108=30|10=133|
20241012-21:10:30.093646000 : 8=FIX.4.2|9=68|35=A|34=10|49=CLIENT|52=20241012-21:10:30.093|56=SERVER|98=0|108=30|10=183|
20241012-21:11:00.044460000 : 8=FIX.4.2|9=68|35=A|34=11|49=CLIENT|52=20241012-21:11:00.044|56=SERVER|98=0|108=30|10=178|
20241012-21:11:30.827364000 : 8=FIX.4.2|9=68|35=A|34=12|49=CLIENT|52=20241012-21:11:30.827|56=SERVER|98=0|108=30|10=191|
20241012-21:12:00.518854000 : 8=FIX.4.2|9=68|35=A|34=13|49=CLIENT|52=20241012-21:12:00.518|56=SERVER|98=0|108=30|10=187|
20241012-21:12:30.084929000 : 8=FIX.4.2|9=68|35=A|34=14|49=CLIENT|52=20241012-21:12:30.084|56=SERVER|98=0|108=30|10=189|
20241012-21:13:00.486062000 : 8=FIX.4.2|9=68|35=A|34=15|49=CLIENT|52=20241012-21:13:00.485|56=SERVER|98=0|108=30|10=193|
20241012-21:13:30.761711000 : 8=FIX.4.2|9=68|35=A|34=16|49=CLIENT|52=20241012-21:13:30.761|56=SERVER|98=0|108=30|10=194|
20241012-21:14:00.904198000 : 8=FIX.4.2|9=68|35=A|34=17|49=CLIENT|52=20241012-21:14:00.904|56=SERVER|98=0|108=30|10=192|
20241012-21:14:30.912543000 : 8=FIX.4.2|9=68|35=A|34=18|49=CLIENT|52=20241012-21:14:30.912|56=SERVER|98=0|108=30|10=195|
20241012-21:15:00.798974000 : 8=FIX.4.2|9=68|35=A|34=19|49=CLIENT|52=20241012-21:15:00.798|56=SERVER|98=0|108=30|10=206|
20241012-21:15:30.563063000 : 8=FIX.4.2|9=68|35=A|34=20|49=CLIENT|52=20241012-21:15:30.562|56=SERVER|98=0|108=30|10=190|
20241012-21:16:00.198476000 : 8=FIX.4.2|9=68|35=A|34=21|49=CLIENT|52=20241012-21:16:00.198|56=SERVER|98=0|108=30|10=194|
20241012-21:16:30.621841000 : 8=FIX.4.2|9=68|35=A|34=22|49=CLIENT|52=20241012-21:16:30.621|56=SERVER|98=0|108=30|10=189|
20241012-21:17:00.918412000 : 8=FIX.4.2|9=68|35=A|34=23|49=CLIENT|52=20241012-21:17:00.918|56=SERVER|98=0|108=30|10=197|
20241012-21:17:30.142038000 : 8=FIX.4.2|9=68|35=A|34=24|49=CLIENT|52=20241012-21:17:30.142|56=SERVER|98=0|108=30|10=190|
20241012-21:18:00.188213000 : 8=FIX.4.2|9=68|35=A|34=25|49=CLIENT|52=20241012-21:18:00.188|56=SERVER|98=0|108=30|10=199|
20241012-21:18:30.098708000 : 8=FIX.4.2|9=68|35=A|34=26|49=CLIENT|52=20241012-21:18:30.098|56=SERVER|98=0|108=30|10=203|
20241012-21:19:00.772020000 : 8=FIX.4.2|9=68|35=A|34=27|49=CLIENT|52=20241012-21:19:00.771|56=SERVER|98=0|108=30|10=200|
20241012-21:19:30.404518000 : 8=FIX.4.2|9=68|35=A|34=28|49=CLIENT|52=20241012-21:19:30.404|56=SERVER|98=0|108=30|10=197|
20241012-21:20:00.792544000 : 8=FIX.4.2|9=68|35=A|34=29|49=CLIENT|52=20241012-21:20:00.792|56=SERVER|98=0|108=30|10=197|
20241012-21:20:30.156247000 : 8=FIX.4.2|9=68|35=A|34=30|49=CLIENT|52=20241012-21:20:30.156|56=SERVER|98=0|108=30|10=186|
20241012-21:21:00.274884000 : 8=FIX.4.2|9=68|35=A|34=31|49=CLIENT|52=20241012-21:21:00.274|56=SERVER|98=0|108=30|10=186|
20241012-21:21:30.257147000 : 8=FIX.4.2|9=68|35=A|34=32|49=CLIENT|52=20241012-21:21:30.257|56=SERVER|98=0|108=30|10=191|
20241012-21:22:00.102284000 : 8=FIX.4.2|9=68|35=A|34=33|49=CLIENT|52=20241012-21:22:00.102|56=SERVER|98=0|108=30|10=179|
20241013-13:48:14.461626000 : 8=FIX.4.2|9=67|35=A|34=1|49=CLIENT|52=20241013-13:48:14.461|56=SERVER|98=0|108=30|10=148|
20241013-18:52:01.488665000 : 8=FIX.4.2|9=67|35=A|34=2|49=CLIENT|52=20241013-18:52:01.488|56=SERVER|98=0|108=30|10=154|
20241014-11:51:52.360294000 : 8=FIX.4.2|9=67|35=A|34=1|49=CLIENT|52=20241014-11:51:52.360|56=SERVER|98=0|108=30|10=141|
20241014-11:51:52.361103000 : 8=FIX.4.2|9=80|35=5|34=1|49=SERVER|52=20241014-11:51:52.360|56=CLIENT|58=Incorrect BeginString|10=051|
20241014-11:51:52.361306000 : 8=FIX.4.2|9=55|35=5|34=2|49=CLIENT|52=20241014-11:51:52.361|56=SERVER|10=103|
20241014-11:52:22.292034000 : 8=FIX.4.2|9=67|35=A|34=4|49=CLIENT|52=20241014-11:52:22.291|56=SERVER|98=0|108=30|10=145|
20241014-11:52:22.292634000 : 8=FIX.4.2|9=80|35=5|34=2|49=SERVER|52=20241014-11:52:22.292|56=CLIENT|58=Incorrect BeginString|10=054|
20241014-11:52:22.292803000 : 8=FIX.4.2|9=55|35=5|34=5|49=CLIENT|52=20241014-11:52:22.292|56=SERVER|10=107|
20241014-12:39:21.865102000 : 8=FIX.4.2|9=67|35=A|34=7|49=CLIENT|52=20241014-12:39:21.865|56=SERVER|98=0|108=30|10=160|
20241014-12:39:21.865616000 : 8=FIX.4.2|9=80|35=5|34=3|49=SERVER|52=20241014-12:39:21.865|56=CLIENT|58=Incorrect BeginString|10=066|
20241014-12:39:21.865730000 : 8=FIX.4.2|9=55|35=5|34=8|49=CLIENT|52=20241014-12:39:21.865|56=SERVER|10=121|
20241014-12:39:51.781534000 : 8=FIX.4.2|9=68|35=A|34=10|49=CLIENT|52=20241014-12:39:51.781|56=SERVER|98=0|108=30|10=203|
20241014-12:39:51.782080000 : 8=FIX.4.2|9=80|35=5|34=4|49=SERVER|52=20241014-12:39:51.781|56=CLIENT|58=Incorrect BeginString|10=067|
20241014-12:39:51.782269000 : 8=FIX.4.2|9=56|35=5|34=11|49=CLIENT|52=20241014-12:39:51.782|56=SERVER|10=165|
20241014-13:25:26.000902000 : 8=FIX.4.2|9=68|35=A|34=13|49=CLIENT|52=20241014-13:25:26.000|56=SERVER|98=0|108=30|10=188|
20241014-13:25:26.001416000 : 8=FIX.4.2|9=80|35=5|34=5|49=SERVER|52=20241014-13:25:26.001|56=CLIENT|58=Incorrect BeginString|10=051|
20241014-13:25:26.001534000 : 8=FIX.4.2|9=56|35=5|34=14|49=CLIENT|52=20241014-13:25:26.001|56=SERVER|10=150|
20241014-13:25:52.483958000 : 8=FIX.4.2|9=68|35=A|34=16|49=CLIENT|52=20241014-13:25:52.483|56=SERVER|98=0|108=30|10=205|
20241014-13:25:52.484367000 : 8=FIX.4.2|9=80|35=5|34=6|49=SERVER|52=20241014-13:25:52.484|56=CLIENT|58=Incorrect BeginString|10=066|
20241014-13:25:52.484486000 : 8=FIX.4.2|9=56|35=5|34=17|49=CLIENT|52=20241014-13:25:52.484|56=SERVER|10=167|
20241014-15:39:25.424627000 : 8=FIX.4.2|9=68|35=A|34=19|49=CLIENT|52=20241014-15:39:25.424|56=SERVER|98=0|108=30|10=210|
20241014-15:39:25.425118000 : 8=FIX.4.2|9=80|35=5|34=7|49=SERVER|52=20241014-15:39:25.424|56=CLIENT|58=Incorrect BeginString|10=068|
20241014-15:39:25.425241000 : 8=FIX.4.2|9=56|35=5|34=20|49=CLIENT|52=20241014-15:39:25.425|56=SERVER|10=163|
20241014-15:47:54.967350000 : 8=FIX.4.2|9=68|35=A|34=22|49=CLIENT|52=20241014-15:47:54.967|56=SERVER|98=0|108=30|10=217|
20241014-15:47:54.967743000 : 8=FIX.4.2|9=80|35=5|34=8|49=SERVER|52=20241014-15:47:54.967|56=CLIENT|58=Incorrect BeginString|10=082|
20241014-15:47:54.967872000 : 8=FIX.4.2|9=56|35=5|34=23|49=CLIENT|52=20241014-15:47:54.967|56=SERVER|10=178|
20241014-20:43:06.437091000 : 8=FIX.4.2|9=68|35=A|34=25|49=CLIENT|52=20241014-20:43:06.436|56=SERVER|98=0|108=30|10=200|
20241014-20:43:06.437562000 : 8=FIX.4.2|9=80|35=5|34=9|49=SERVER|52=20241014-20:43:06.437|56=CLIENT|58=Incorrect BeginString|10=064|
20241014-20:43:06.437697000 : 8=FIX.4.2|9=56|35=5|34=26|49=CLIENT|52=20241014-20:43:06.437|56=SERVER|10=162|
20241014-20:43:36.345880000 : 8=FIX.4.2|9=68|35=A|34=28|49=CLIENT|52=20241014-20:43:36.345|56=SERVER|98=0|108=30|10=205|
20241014-20:43:36.346192000 : 8=FIX.4.2|9=81|35=5|34=10|49=SERVER|52=20241014-20:43:36.346|56=CLIENT|58=Incorrect BeginString|10=107|
20241014-20:43:36.346301000 : 8=FIX.4.2|9=56|35=5|34=29|49=CLIENT|52=20241014-20:43:36.346|56=SERVER|10=167|
20241014-20:44:06.103767000 : 8=FIX.4.2|9=68|35=A|34=31|49=CLIENT|52=20241014-20:44:06.103|56=SERVER|98=0|108=30|10=189|
20241014-20:44:06.104272000 : 8=FIX.4.2|9=81|35=5|34=11|49=SERVER|52=20241014-20:44:06.104|56=CLIENT|58=Incorrect BeginString|10=098|
20241014-20:44:06.104480000 : 8=FIX.4.2|9=56|35=5|34=32|49=CLIENT|52=20241014-20:44:06.104|56=SERVER|10=151|
20241014-20:44:36.683743000 : 8=FIX.4.2|9=68|35=A|34=34|49=CLIENT|52=20241014-20:44:36.683|56=SERVER|98=0|108=30|10=208|
20241014-20:44:36.684224000 : 8=FIX.4.2|9=81|35=5|34=12|49=SERVER|52=20241014-20:44:36.684|56=CLIENT|58=Incorrect BeginString|10=115|
20241014-20:44:36.684431000 : 8=FIX.4.2|9=56|35=5|34=35|49=CLIENT|52=20241014-20:44:36.684|56=SERVER|10=170|
20241014-20:45:06.097874000 : 8=FIX.4.2|9=68|35=A|34=37|49=CLIENT|52=20241014-20:45:06.097|56=SERVER|98=0|108=30|10=208|
20241014-20:45:06.098346000 : 8=FIX.4.2|9=81|35=5|34=13|49=SERVER|52=20241014-20:45:06.098|56=CLIENT|58=Incorrect BeginString|10=113|
20241014-20:45:06.098490000 : 8=FIX.4.2|9=56|35=5|34=38|49=CLIENT|52=20241014-20:45:06.098|56=SERVER|10=170|
20241015-13:34:37.613157000 : 8=FIX.4.2|9=67|35=A|34=1|49=CLIENT|52=20241015-13:34:37.613|56=SERVER|98=0|108=30|10=149|
20241015-13:40:39.802928000 : 8=FIX.4.2|9=67|35=A|34=2|49=CLIENT|52=20241015-13:40:39.802|56=SERVER|98=0|108=30|10=149|
20241015-13:45:34.984917000 : 8=FIX.4.2|9=67|35=A|34=3|49=CLIENT|52=20241015-13:45:34.984|56=SERVER|98=0|108=30|10=161|
20241015-13:45:34.992403000 : 8=FIX.4.2|9=80|35=5|34=1|49=SERVER|52=20241015-13:45:34.992|56=CLIENT|58=Incorrect BeginString|10=068|
20241015-13:45:34.992470000 : 8=FIX.4.2|9=55|35=5|34=4|49=CLIENT|52=20241015-13:45:34.992|56=SERVER|10=121|
20241015-13:47:14.802827000 : 8=FIX.4.2|9=67|35=A|34=6|49=CLIENT|52=20241015-13:47:14.802|56=SERVER|98=0|108=30|10=153|
20241015-13:47:32.570877000 : 8=FIX.4.2|9=67|35=A|34=7|49=CLIENT|52=20241015-13:47:32.570|56=SERVER|98=0|108=30|10=156|
20241015-13:47:32.571038000 : 8=FIX.4.2|9=80|35=5|34=2|49=SERVER|52=20241015-13:47:32.570|56=CLIENT|58=Incorrect BeginString|10=061|
20241015-13:47:32.571086000 : 8=FIX.4.2|9=55|35=5|34=8|49=CLIENT|52=20241015-13:47:32.571|56=SERVER|10=118|
20241015-13:50:22.758134000 : 8=FIX.4.2|9=68|35=A|34=10|49=CLIENT|52=20241015-13:50:22.758|56=SERVER|98=0|108=30|10=200|
20241015-13:54:53.723238000 : 8=FIX.4.2|9=68|35=A|34=11|49=CLIENT|52=20241015-13:54:53.723|56=SERVER|98=0|108=30|10=201|
20241015-13:54:53.723484000 : 8=FIX.4.2|9=80|35=5|34=3|49=SERVER|52=20241015-13:54:53.723|56=CLIENT|58=Incorrect BeginString|10=063|
20241015-13:54:53.723546000 : 8=FIX.4.2|9=56|35=5|34=12|49=CLIENT|52=20241015-13:54:53.723|56=SERVER|10=162|
20241015-13:56:30.706099000 : 8=FIX.4.2|9=68|35=A|34=14|49=CLIENT|52=20241015-13:56:30.706|56=SERVER|98=0|108=30|10=202|
20241015-13:56:30.706379000 : 8=FIX.4.2|9=80|35=5|34=4|49=SERVER|52=20241015-13:56:30.706|56=CLIENT|58=Incorrect BeginString|10=062|
20241015-13:56:30.706435000 : 8=FIX.4.2|9=56|35=5|34=15|49=CLIENT|52=20241015-13:56:30.706|56=SERVER|10=163|
20241015-14:48:32.369007000 : 8=FIX.4.2|9=68|35=A|34=17|49=CLIENT|52=20241015-14:48:32.368|56=SERVER|98=0|108=30|10=213|
20241015-14:48:32.369281000 : 8=FIX.4.2|9=80|35=5|34=5|49=SERVER|52=20241015-14:48:32.369|56=CLIENT|58=Incorrect BeginString|10=072|
20241015-14:48:32.369340000 : 8=FIX.4.2|9=56|35=5|34=18|49=CLIENT|52=20241015-14:48:32.369|56=SERVER|10=175|
20241015-15:45:26.334659000 : 8=FIX.4.2|9=68|35=A|34=20|49=CLIENT|52=20241015-15:45:26.334|56=SERVER|98=0|108=30|10=201|
20241015-15:45:26.334956000 : 8=FIX.4.2|9=80|35=5|34=6|49=SERVER|52=20241015-15:45:26.334|56=CLIENT|58=Incorrect BeginString|10=066|
20241015-15:45:26.335023000 : 8=FIX.4.2|9=56|35=5|34=21|49=CLIENT|52=20241015-15:45:26.335|56=SERVER|10=163|
20241015-15:45:29.698988000 : 8=FIX.4.2|9=68|35=A|34=23|49=CLIENT|52=20241015-15:45:29.698|56=SERVER|98=0|108=30|10=220|
20241015-15:45:29.699159000 : 8=FIX.4.2|9=80|35=5|34=7|49=SERVER|52=20241015-15:45:29.699|56=CLIENT|58=Incorrect BeginString|10=084|
20241015-15:45:29.699222000 : 8=FIX.4.2|9=56|35=5|34=24|49=CLIENT|52=20241015-15:45:29.699|56=SERVER|10=182|
20241015-16:04:29.043126000 : 8=FIX.4.2|9=68|35=A|34=26|49=CLIENT|52=20241015-16:04:29.043|56=SERVER|98=0|108=30|10=203|
20241015-16:04:29.043378000 : 8=FIX.4.2|9=80|35=5|34=8|49=SERVER|52=20241015-16:04:29.043|56=CLIENT|58=Incorrect BeginString|10=064|
20241015-16:04:29.043438000 : 8=FIX.4.2|9=56|35=5|34=27|49=CLIENT|52=20241015-16:04:29.043|56=SERVER|10=164|
20241015-16:27:11.119744000 : 8=FIX.4.2|9=68|35=A|34=29|49=CLIENT|52=20241015-16:27:11.119|56=SERVER|98=0|108=30|10=206|
20241015-16:27:11.120030000 : 8=FIX.4.2|9=80|35=5|34=9|49=SERVER|52=20241015-16:27:11.119|56=CLIENT|58=Incorrect BeginString|10=065|
20241015-16:27:11.120084000 : 8=FIX.4.2|9=56|35=5|34=30|49=CLIENT|52=20241015-16:27:11.120|56=SERVER|10=150|
20241015-16:27:18.148650000 : 8=FIX.4.2|9=68|35=A|34=32|49=CLIENT|52=20241015-16:27:18.148|56=SERVER|98=0|108=30|10=209|
20241015-16:27:18.148796000 : 8=FIX.4.2|9=81|35=5|34=10|49=SERVER|52=20241015-16:27:18.148|56=CLIENT|58=Incorrect BeginString|10=115|
20241015-16:27:18.148839000 : 8=FIX.4.2|9=56|35=5|34=33|49=CLIENT|52=20241015-16:27:18.148|56=SERVER|10=170|
20241015-16:27:21.085760000 : 8=FIX.4.2|9=68|35=A|34=35|49=CLIENT|52=20241015-16:27:21.085|56=SERVER|98=0|108=30|10=206|
20241015-16:27:21.085855000 : 8=FIX.4.2|9=81|35=5|34=11|49=SERVER|52=20241015-16:27:21.085|56=CLIENT|58=Incorrect BeginString|10=110|
20241015-16:27:21.085890000 : 8=FIX.4.2|9=56|35=5|34=36|49=CLIENT|52=20241015-16:27:21.085|56=SERVER|10=167|
20241015-16:45:51.976194000 : 8=FIX.4.2|9=68|35=A|34=38|49=CLIENT|52=20241015-16:45:51.976|56=SERVER|98=0|108=30|10=221|
20241015-16:45:51.976417000 : 8=FIX.4.2|9=81|35=5|34=12|49=SERVER|52=20241015-16:45:51.976|56=CLIENT|58=Incorrect BeginString|10=123|
20241015-16:45:51.976467000 : 8=FIX.4.2|9=56|35=5|34=39|49=CLIENT|52=20241015-16:45:51.976|56=SERVER|10=182|
20241015-19:10:00.422320000 : 8=FIX.4.2|9=68|35=A|34=41|49=CLIENT|52=20241015-19:10:00.422|56=SERVER|98=0|108=30|10=190|
20241015-19:10:00.422660000 : 8=FIX.4.2|9=81|35=5|34=13|49=SERVER|52=20241015-19:10:00.422|56=CLIENT|58=Incorrect BeginString|10=099|
20241015-19:10:00.422774000 : 8=FIX.4.2|9=56|35=5|34=42|49=CLIENT|52=20241015-19:10:00.422|56=SERVER|10=151|
20241015-19:53:52.933412000 : 8=FIX.4.2|9=68|35=A|34=44|49=CLIENT|52=20241015-19:53:52.933|56=SERVER|98=0|108=30|10=214|
20241015-19:55:06.649205000 : 8=FIX.4.2|9=68|35=A|34=45|49=CLIENT|52=20241015-19:55:06.649|56=SERVER|98=0|108=30|10=220|
20241015-19:55:06.649425000 : 8=FIX.4.2|9=81|35=5|34=14|49=SERVER|52=20241015-19:55:06.649|56=CLIENT|58=Incorrect BeginString|10=126|
20241015-19:55:06.649492000 : 8=FIX.4.2|9=56|35=5|34=46|49=CLIENT|52=20241015-19:55:06.649|56=SERVER|10=181|
20241015-22:24:39.707865000 : 8=FIX.4.2|9=68|35=A|34=48|49=CLIENT|52=20241015-22:24:39.707|56=SERVER|98=0|108=30|10=214|
20241015-22:24:39.708120000 : 8=FIX.4.2|9=68|35=A|34=15|49=SERVER|52=20241015-22:24:39.708|56=CLIENT|98=0|108=30|10=209|
20241015-22:24:39.708166000 : 8=FIX.4.2|9=66|35=2|34=16|49=SERVER|52=20241015-22:24:39.708|56=CLIENT|7=15|16=0|10=088|
20241015-22:24:39.708268000 : 8=FIX.4.2|9=99|35=4|34=15|43=Y|49=CLIENT|52=20241015-22:24:39.708|56=SERVER|122=20241015-22:24:39.708|36=49|123=Y|10=244|
20241017-19:11:23.826416000 : 8=FIX.4.2|9=67|35=A|34=1|49=CLIENT|52=20241017-19:11:23.826|56=SERVER|98=0|108=30|10=153|
20241017-19:11:23.827768000 : 8=FIX.4.2|9=67|35=A|34=1|49=SERVER|52=20241017-19:11:23.827|56=CLIENT|98=0|108=30|10=154|
20241017-19:27:52.691350000 : 8=FIX.4.2|9=67|35=A|34=2|49=CLIENT|52=20241017-19:27:52.691|56=SERVER|98=0|108=30|10=163|
20241017-19:27:52.691629000 : 8=FIX.4.2|9=67|35=A|34=2|49=SERVER|52=20241017-19:27:52.691|56=CLIENT|98=0|108=30|10=163|
