20241011-22:36:12.758536000 : 8=FIX.4.2|9=67|35=A|34=2|49=CLIENT|52=20241011-22:36:12.758|56=SERVER|98=0|108=30|10=151|
20241011-22:36:12.758600000 : 8=FIX.4.2|9=80|35=5|34=1|49=SERVER|52=20241011-22:36:12.758|56=CLIENT|58=Incorrect BeginString|10=060|
20241011-22:36:12.758785000 : 8=FIX.4.2|9=55|35=5|34=3|49=CLIENT|52=20241011-22:36:12.758|56=SERVER|10=112|
20241011-22:36:42.722648000 : 8=FIX.4.2|9=67|35=A|34=5|49=CLIENT|52=20241011-22:36:42.722|56=SERVER|98=0|108=30|10=148|
20241011-22:36:42.722823000 : 8=FIX.4.2|9=80|35=5|34=2|49=SERVER|52=20241011-22:36:42.722|56=CLIENT|58=Incorrect BeginString|10=055|
20241011-22:36:42.723319000 : 8=FIX.4.2|9=55|35=5|34=6|49=CLIENT|52=20241011-22:36:42.723|56=SERVER|10=110|
20241011-22:37:12.565773000 : 8=FIX.4.2|9=67|35=A|34=8|49=CLIENT|52=20241011-22:37:12.565|56=SERVER|98=0|108=30|10=154|
20241011-22:37:12.565910000 : 8=FIX.4.2|9=80|35=5|34=3|49=SERVER|52=20241011-22:37:12.565|56=CLIENT|58=Incorrect BeginString|10=059|
20241011-22:37:12.566358000 : 8=FIX.4.2|9=55|35=5|34=9|49=CLIENT|52=20241011-22:37:12.566|56=SERVER|10=116|
20241011-22:37:42.301568000 : 8=FIX.4.2|9=68|35=A|34=11|49=CLIENT|52=20241011-22:37:42.301|56=SERVER|98=0|108=30|10=188|
20241011-22:37:42.301700000 : 8=FIX.4.2|9=80|35=5|34=4|49=SERVER|52=20241011-22:37:42.301|56=CLIENT|58=Incorrect BeginString|10=051|
20241011-22:37:42.302262000 : 8=FIX.4.2|9=56|35=5|34=12|49=CLIENT|52=20241011-22:37:42.301|56=SERVER|10=149|
20241011-22:38:12.903365000 : 8=FIX.4.2|9=68|35=A|34=14|49=CLIENT|52=20241011-22:38:12.903|56=SERVER|98=0|108=30|10=197|
20241011-22:38:12.903502000 : 8=FIX.4.2|9=80|35=5|34=5|49=SERVER|52=20241011-22:38:12.903|56=CLIENT|58=Incorrect BeginString|10=058|
20241011-22:38:12.903807000 : 8=FIX.4.2|9=56|35=5|34=15|49=CLIENT|52=20241011-22:38:12.903|56=SERVER|10=158|
20241011-22:38:42.408154000 : 8=FIX.4.2|9=68|35=A|34=17|49=CLIENT|52=20241011-22:38:42.407|56=SERVER|98=0|108=30|10=202|
20241011-22:38:42.408280000 : 8=FIX.4.2|9=80|35=5|34=6|49=SERVER|52=20241011-22:38:42.408|56=CLIENT|58=Incorrect BeginString|10=062|
20241011-22:38:42.408612000 : 8=FIX.4.2|9=56|35=5|34=18|49=CLIENT|52=20241011-22:38:42.408|56=SERVER|10=164|
20241011-22:39:12.775511000 : 8=FIX.4.2|9=68|35=A|34=20|49=CLIENT|52=20241011-22:39:12.775|56=SERVER|98=0|108=30|10=202|
20241011-22:39:12.775646000 : 8=FIX.4.2|9=80|35=5|34=7|49=SERVER|52=20241011-22:39:12.775|56=CLIENT|58=Incorrect BeginString|10=068|
20241011-22:39:12.775967000 : 8=FIX.4.2|9=56|35=5|34=21|49=CLIENT|52=20241011-22:39:12.775|56=SERVER|10=163|
20241011-22:39:42.034827000 : 8=FIX.4.2|9=68|35=A|34=23|49=CLIENT|52=20241011-22:39:42.034|56=SERVER|98=0|108=30|10=196|
20241011-22:39:42.034975000 : 8=FIX.4.2|9=80|35=5|34=8|49=SERVER|52=20241011-22:39:42.034|56=CLIENT|58=Incorrect BeginString|10=060|
20241011-22:39:42.035523000 : 8=FIX.4.2|9=56|35=5|34=24|49=CLIENT|52=20241011-22:39:42.035|56=SERVER|10=158|
20241011-22:40:12.138041000 : 8=FIX.4.2|9=68|35=A|34=26|49=CLIENT|52=20241011-22:40:12.137|56=SERVER|98=0|108=30|10=192|
20241011-22:40:12.138186000 : 8=FIX.4.2|9=80|35=5|34=9|49=SERVER|52=20241011-22:40:12.138|56=CLIENT|58=Incorrect BeginString|10=055|
20241011-22:40:12.138751000 : 8=FIX.4.2|9=56|35=5|34=27|49=CLIENT|52=20241011-22:40:12.138|56=SERVER|10=154|
20241011-22:40:42.109187000 : 8=FIX.4.2|9=68|35=A|34=29|49=CLIENT|52=20241011-22:40:42.109|56=SERVER|98=0|108=30|10=197|
20241011-22:40:42.109308000 : 8=FIX.4.2|9=81|35=5|34=10|49=SERVER|52=20241011-22:40:42.109|56=CLIENT|58=Incorrect BeginString|10=097|
20241011-22:40:42.109629000 : 8=FIX.4.2|9=56|35=5|34=30|49=CLIENT|52=20241011-22:40:42.109|56=SERVER|10=149|
20241011-22:41:12.909013000 : 8=FIX.4.2|9=68|35=A|34=32|49=CLIENT|52=20241011-22:41:12.908|56=SERVER|98=0|108=30|10=196|
20241011-22:41:12.909314000 : 8=FIX.4.2|9=81|35=5|34=11|49=SERVER|52=20241011-22:41:12.909|56=CLIENT|58=Incorrect BeginString|10=104|
20241011-22:41:12.909860000 : 8=FIX.4.2|9=56|35=5|34=33|49=CLIENT|52=20241011-22:41:12.909|56=SERVER|10=158|
20241011-22:48:18.343722000 : 8=FIX.4.2|9=68|35=A|34=36|49=CLIENT|52=20241011-22:48:18.343|56=SERVER|98=0|108=30|10=206|
20241011-22:48:18.344303000 : 8=FIX.4.2|9=81|35=5|34=12|49=SERVER|52=20241011-22:48:18.343|56=CLIENT|58=Incorrect BeginString|10=110|
20241011-22:48:18.344753000 : 8=FIX.4.2|9=56|35=5|34=37|49=CLIENT|52=20241011-22:48:18.344|56=SERVER|10=168|
20241011-22:53:42.548493000 : 8=FIX.4.2|9=68|35=A|34=42|49=CLIENT|52=20241011-22:53:42.548|56=SERVER|98=0|108=30|10=203|
20241011-22:53:42.548546000 : 8=FIX.4.2|9=81|35=5|34=13|49=SERVER|52=20241011-22:53:42.548|56=CLIENT|58=Incorrect BeginString|10=111|
20241011-22:53:42.548773000 : 8=FIX.4.2|9=56|35=5|34=43|49=CLIENT|52=20241011-22:53:42.548|56=SERVER|10=164|
20241011-22:57:44.425763000 : 8=FIX.4.2|9=68|35=A|34=45|49=CLIENT|52=20241011-22:57:44.425|56=SERVER|98=0|108=30|10=206|
20241011-22:57:44.425819000 : 8=FIX.4.2|9=81|35=5|34=14|49=SERVER|52=20241011-22:57:44.425|56=CLIENT|58=Incorrect BeginString|10=112|
20241011-22:57:44.426011000 : 8=FIX.4.2|9=56|35=5|34=46|49=CLIENT|52=20241011-22:57:44.425|56=SERVER|10=167|
20241011-22:58:14.374742000 : 8=FIX.4.2|9=68|35=A|34=48|49=CLIENT|52=20241011-22:58:14.374|56=SERVER|98=0|108=30|10=210|
20241011-22:58:14.374859000 : 8=FIX.4.2|9=81|35=5|34=15|49=SERVER|52=20241011-22:58:14.374|56=CLIENT|58=Incorrect BeginString|10=114|
20241011-22:58:14.375308000 : 8=FIX.4.2|9=56|35=5|34=49|49=CLIENT|52=20241011-22:58:14.375|56=SERVER|10=172|
20241011-22:58:44.189868000 : 8=FIX.4.2|9=68|35=A|34=51|49=CLIENT|52=20241011-22:58:44.189|56=SERVER|98=0|108=30|10=211|
20241011-22:58:44.190000000 : 8=FIX.4.2|9=81|35=5|34=16|49=SERVER|52=20241011-22:58:44.189|56=CLIENT|58=Incorrect BeginString|10=122|
20241011-22:58:44.190517000 : 8=FIX.4.2|9=56|35=5|34=52|49=CLIENT|52=20241011-22:58:44.190|56=SERVER|10=164|
20241011-22:59:14.865418000 : 8=FIX.4.2|9=68|35=A|34=54|49=CLIENT|52=20241011-22:59:14.865|56=SERVER|98=0|108=30|10=213|
20241011-22:59:14.865546000 : 8=FIX.4.2|9=81|35=5|34=17|49=SERVER|52=20241011-22:59:14.865|56=CLIENT|58=Incorrect BeginString|10=122|
20241011-22:59:14.866024000 : 8=FIX.4.2|9=56|35=5|34=55|49=CLIENT|52=20241011-22:59:14.865|56=SERVER|10=174|
20241014-11:51:52.360598000 : 8=FIX.4.2|9=67|35=A|34=1|49=CLIENT|52=20241014-11:51:52.360|56=SERVER|98=0|108=30|10=141|
20241014-11:51:52.360938000 : 8=FIX.4.2|9=80|35=5|34=1|49=SERVER|52=20241014-11:51:52.360|56=CLIENT|58=Incorrect BeginString|10=051|
20241014-11:51:52.361418000 : 8=FIX.4.2|9=55|35=5|34=2|49=CLIENT|52=20241014-11:51:52.361|56=SERVER|10=103|
20241014-11:52:22.292298000 : 8=FIX.4.2|9=67|35=A|34=4|49=CLIENT|52=20241014-11:52:22.291|56=SERVER|98=0|108=30|10=145|
20241014-11:52:22.292441000 : 8=FIX.4.2|9=80|35=5|34=2|49=SERVER|52=20241014-11:52:22.292|56=CLIENT|58=Incorrect BeginString|10=054|
20241014-11:52:22.292993000 : 8=FIX.4.2|9=55|35=5|34=5|49=CLIENT|52=20241014-11:52:22.292|56=SERVER|10=107|
20241014-12:39:21.865292000 : 8=FIX.4.2|9=67|35=A|34=7|49=CLIENT|52=20241014-12:39:21.865|56=SERVER|98=0|108=30|10=160|
20241014-12:39:21.865442000 : 8=FIX.4.2|9=80|35=5|34=3|49=SERVER|52=20241014-12:39:21.865|56=CLIENT|58=Incorrect BeginString|10=066|
20241014-12:39:21.865847000 : 8=FIX.4.2|9=55|35=5|34=8|49=CLIENT|52=20241014-12:39:21.865|56=SERVER|10=121|
20241014-12:39:51.781747000 : 8=FIX.4.2|9=68|35=A|34=10|49=CLIENT|52=20241014-12:39:51.781|56=SERVER|98=0|108=30|10=203|
20241014-12:39:51.781909000 : 8=FIX.4.2|9=80|35=5|34=4|49=SERVER|52=20241014-12:39:51.781|56=CLIENT|58=Incorrect BeginString|10=067|
20241014-12:39:51.782449000 : 8=FIX.4.2|9=56|35=5|34=11|49=CLIENT|52=20241014-12:39:51.782|56=SERVER|10=165|
20241014-13:25:26.001118000 : 8=FIX.4.2|9=68|35=A|34=13|49=CLIENT|52=20241014-13:25:26.000|56=SERVER|98=0|108=30|10=188|
20241014-13:25:26.001256000 : 8=FIX.4.2|9=80|35=5|34=5|49=SERVER|52=20241014-13:25:26.001|56=CLIENT|58=Incorrect BeginString|10=051|
20241014-13:25:26.001659000 : 8=FIX.4.2|9=56|35=5|34=14|49=CLIENT|52=20241014-13:25:26.001|56=SERVER|10=150|
20241014-13:25:52.484116000 : 8=FIX.4.2|9=68|35=A|34=16|49=CLIENT|52=20241014-13:25:52.483|56=SERVER|98=0|108=30|10=205|
20241014-13:25:52.484238000 : 8=FIX.4.2|9=80|35=5|34=6|49=SERVER|52=20241014-13:25:52.484|56=CLIENT|58=Incorrect BeginString|10=066|
20241014-13:25:52.484583000 : 8=FIX.4.2|9=56|35=5|34=17|49=CLIENT|52=20241014-13:25:52.484|56=SERVER|10=167|
20241014-15:39:25.424801000 : 8=FIX.4.2|9=68|35=A|34=19|49=CLIENT|52=20241014-15:39:25.424|56=SERVER|98=0|108=30|10=210|
20241014-15:39:25.424946000 : 8=FIX.4.2|9=80|35=5|34=7|49=SERVER|52=20241014-15:39:25.424|56=CLIENT|58=Incorrect BeginString|10=068|
20241014-15:39:25.425358000 : 8=FIX.4.2|9=56|35=5|34=20|49=CLIENT|52=20241014-15:39:25.425|56=SERVER|10=163|
20241014-15:47:54.967465000 : 8=FIX.4.2|9=68|35=A|34=22|49=CLIENT|52=20241014-15:47:54.967|56=SERVER|98=0|108=30|10=217|
20241014-15:47:54.967600000 : 8=FIX.4.2|9=80|35=5|34=8|49=SERVER|52=20241014-15:47:54.967|56=CLIENT|58=Incorrect BeginString|10=082|
20241014-15:47:54.967972000 : 8=FIX.4.2|9=56|35=5|34=23|49=CLIENT|52=20241014-15:47:54.967|56=SERVER|10=178|
20241014-20:43:06.437241000 : 8=FIX.4.2|9=68|35=A|34=25|49=CLIENT|52=20241014-20:43:06.436|56=SERVER|98=0|108=30|10=200|
20241014-20:43:06.437385000 : 8=FIX.4.2|9=80|35=5|34=9|49=SERVER|52=20241014-20:43:06.437|56=CLIENT|58=Incorrect BeginString|10=064|
20241014-20:43:06.437824000 : 8=FIX.4.2|9=56|35=5|34=26|49=CLIENT|52=20241014-20:43:06.437|56=SERVER|10=162|
20241014-20:43:36.346011000 : 8=FIX.4.2|9=68|35=A|34=28|49=CLIENT|52=20241014-20:43:36.345|56=SERVER|98=0|108=30|10=205|
20241014-20:43:36.346127000 : 8=FIX.4.2|9=81|35=5|34=10|49=SERVER|52=20241014-20:43:36.346|56=CLIENT|58=Incorrect BeginString|10=107|
20241014-20:43:36.346435000 : 8=FIX.4.2|9=56|35=5|34=29|49=CLIENT|52=20241014-20:43:36.346|56=SERVER|10=167|
20241014-20:44:06.103968000 : 8=FIX.4.2|9=68|35=A|34=31|49=CLIENT|52=20241014-20:44:06.103|56=SERVER|98=0|108=30|10=189|
20241014-20:44:06.104109000 : 8=FIX.4.2|9=81|35=5|34=11|49=SERVER|52=20241014-20:44:06.104|56=CLIENT|58=Incorrect BeginString|10=098|
20241014-20:44:06.104692000 : 8=FIX.4.2|9=56|35=5|34=32|49=CLIENT|52=20241014-20:44:06.104|56=SERVER|10=151|
20241014-20:44:36.683941000 : 8=FIX.4.2|9=68|35=A|34=34|49=CLIENT|52=20241014-20:44:36.683|56=SERVER|98=0|108=30|10=208|
20241014-20:44:36.684065000 : 8=FIX.4.2|9=81|35=5|34=12|49=SERVER|52=20241014-20:44:36.684|56=CLIENT|58=Incorrect BeginString|10=115|
20241014-20:44:36.684636000 : 8=FIX.4.2|9=56|35=5|34=35|49=CLIENT|52=20241014-20:44:36.684|56=SERVER|10=170|
20241014-20:45:06.098055000 : 8=FIX.4.2|9=68|35=A|34=37|49=CLIENT|52=20241014-20:45:06.097|56=SERVER|98=0|108=30|10=208|
20241014-20:45:06.098242000 : 8=FIX.4.2|9=81|35=5|34=13|49=SERVER|52=20241014-20:45:06.098|56=CLIENT|58=Incorrect BeginString|10=113|
20241014-20:45:06.098597000 : 8=FIX.4.2|9=56|35=5|34=38|49=CLIENT|52=20241014-20:45:06.098|56=SERVER|10=170|
20241015-13:45:34.991669000 : 8=FIX.4.2|9=67|35=A|34=3|49=CLIENT|52=20241015-13:45:34.984|56=SERVER|98=0|108=30|10=161|
20241015-13:45:34.992228000 : 8=FIX.4.2|9=80|35=5|34=1|49=SERVER|52=20241015-13:45:34.992|56=CLIENT|58=Incorrect BeginString|10=068|
20241015-13:45:34.992538000 : 8=FIX.4.2|9=55|35=5|34=4|49=CLIENT|52=20241015-13:45:34.992|56=SERVER|10=121|
20241015-13:47:32.570940000 : 8=FIX.4.2|9=67|35=A|34=7|49=CLIENT|52=20241015-13:47:32.570|56=SERVER|98=0|108=30|10=156|
20241015-13:47:32.571011000 : 8=FIX.4.2|9=80|35=5|34=2|49=SERVER|52=20241015-13:47:32.570|56=CLIENT|58=Incorrect BeginString|10=061|
20241015-13:47:32.571097000 : 8=FIX.4.2|9=55|35=5|34=8|49=CLIENT|52=20241015-13:47:32.571|56=SERVER|10=118|
20241015-13:54:53.723355000 : 8=FIX.4.2|9=68|35=A|34=11|49=CLIENT|52=20241015-13:54:53.723|56=SERVER|98=0|108=30|10=201|
20241015-13:54:53.723409000 : 8=FIX.4.2|9=80|35=5|34=3|49=SERVER|52=20241015-13:54:53.723|56=CLIENT|58=Incorrect BeginString|10=063|
20241015-13:54:53.723655000 : 8=FIX.4.2|9=56|35=5|34=12|49=CLIENT|52=20241015-13:54:53.723|56=SERVER|10=162|
20241015-13:56:30.706202000 : 8=FIX.4.2|9=68|35=A|34=14|49=CLIENT|52=20241015-13:56:30.706|56=SERVER|98=0|108=30|10=202|
20241015-13:56:30.706291000 : 8=FIX.4.2|9=80|35=5|34=4|49=SERVER|52=20241015-13:56:30.706|56=CLIENT|58=Incorrect BeginString|10=062|
20241015-13:56:30.706493000 : 8=FIX.4.2|9=56|35=5|34=15|49=CLIENT|52=20241015-13:56:30.706|56=SERVER|10=163|
20241015-14:48:32.369148000 : 8=FIX.4.2|9=68|35=A|34=17|49=CLIENT|52=20241015-14:48:32.368|56=SERVER|98=0|108=30|10=213|
20241015-14:48:32.369212000 : 8=FIX.4.2|9=80|35=5|34=5|49=SERVER|52=20241015-14:48:32.369|56=CLIENT|58=Incorrect BeginString|10=072|
20241015-14:48:32.369400000 : 8=FIX.4.2|9=56|35=5|34=18|49=CLIENT|52=20241015-14:48:32.369|56=SERVER|10=175|
20241015-15:45:26.334795000 : 8=FIX.4.2|9=68|35=A|34=20|49=CLIENT|52=20241015-15:45:26.334|56=SERVER|98=0|108=30|10=201|
20241015-15:45:26.334864000 : 8=FIX.4.2|9=80|35=5|34=6|49=SERVER|52=20241015-15:45:26.334|56=CLIENT|58=Incorrect BeginString|10=066|
20241015-15:45:26.335088000 : 8=FIX.4.2|9=56|35=5|34=21|49=CLIENT|52=20241015-15:45:26.335|56=SERVER|10=163|
20241015-15:45:29.699033000 : 8=FIX.4.2|9=68|35=A|34=23|49=CLIENT|52=20241015-15:45:29.698|56=SERVER|98=0|108=30|10=220|
20241015-15:45:29.699091000 : 8=FIX.4.2|9=80|35=5|34=7|49=SERVER|52=20241015-15:45:29.699|56=CLIENT|58=Incorrect BeginString|10=084|
20241015-15:45:29.699276000 : 8=FIX.4.2|9=56|35=5|34=24|49=CLIENT|52=20241015-15:45:29.699|56=SERVER|10=182|
20241015-16:04:29.043246000 : 8=FIX.4.2|9=68|35=A|34=26|49=CLIENT|52=20241015-16:04:29.043|56=SERVER|98=0|108=30|10=203|
20241015-16:04:29.043303000 : 8=FIX.4.2|9=80|35=5|34=8|49=SERVER|52=20241015-16:04:29.043|56=CLIENT|58=Incorrect BeginString|10=064|
20241015-16:04:29.043496000 : 8=FIX.4.2|9=56|35=5|34=27|49=CLIENT|52=20241015-16:04:29.043|56=SERVER|10=164|
20241015-16:27:11.119896000 : 8=FIX.4.2|9=68|35=A|34=29|49=CLIENT|52=20241015-16:27:11.119|56=SERVER|98=0|108=30|10=206|
20241015-16:27:11.119953000 : 8=FIX.4.2|9=80|35=5|34=9|49=SERVER|52=20241015-16:27:11.119|56=CLIENT|58=Incorrect BeginString|10=065|
20241015-16:27:11.120166000 : 8=FIX.4.2|9=56|35=5|34=30|49=CLIENT|52=20241015-16:27:11.120|56=SERVER|10=150|
20241015-16:27:18.148729000 : 8=FIX.4.2|9=68|35=A|34=32|49=CLIENT|52=20241015-16:27:18.148|56=SERVER|98=0|108=30|10=209|
20241015-16:27:18.148772000 : 8=FIX.4.2|9=81|35=5|34=10|49=SERVER|52=20241015-16:27:18.148|56=CLIENT|58=Incorrect BeginString|10=115|
20241015-16:27:18.148909000 : 8=FIX.4.2|9=56|35=5|34=33|49=CLIENT|52=20241015-16:27:18.148|56=SERVER|10=170|
20241015-16:27:21.085791000 : 8=FIX.4.2|9=68|35=A|34=35|49=CLIENT|52=20241015-16:27:21.085|56=SERVER|98=0|108=30|10=206|
20241015-16:27:21.085832000 : 8=FIX.4.2|9=81|35=5|34=11|49=SERVER|52=20241015-16:27:21.085|56=CLIENT|58=Incorrect BeginString|10=110|
20241015-16:27:21.085941000 : 8=FIX.4.2|9=56|35=5|34=36|49=CLIENT|52=20241015-16:27:21.085|56=SERVER|10=167|
20241015-16:45:51.976283000 : 8=FIX.4.2|9=68|35=A|34=38|49=CLIENT|52=20241015-16:45:51.976|56=SERVER|98=0|108=30|10=221|
20241015-16:45:51.976343000 : 8=FIX.4.2|9=81|35=5|34=12|49=SERVER|52=20241015-16:45:51.976|56=CLIENT|58=Incorrect BeginString|10=123|
20241015-16:45:51.976557000 : 8=FIX.4.2|9=56|35=5|34=39|49=CLIENT|52=20241015-16:45:51.976|56=SERVER|10=182|
20241015-19:10:00.422442000 : 8=FIX.4.2|9=68|35=A|34=41|49=CLIENT|52=20241015-19:10:00.422|56=SERVER|98=0|108=30|10=190|
20241015-19:10:00.422528000 : 8=FIX.4.2|9=81|35=5|34=13|49=SERVER|52=20241015-19:10:00.422|56=CLIENT|58=Incorrect BeginString|10=099|
20241015-19:10:00.422805000 : 8=FIX.4.2|9=56|35=5|34=42|49=CLIENT|52=20241015-19:10:00.422|56=SERVER|10=151|
20241015-19:55:06.649290000 : 8=FIX.4.2|9=68|35=A|34=45|49=CLIENT|52=20241015-19:55:06.649|56=SERVER|98=0|108=30|10=220|
20241015-19:55:06.649350000 : 8=FIX.4.2|9=81|35=5|34=14|49=SERVER|52=20241015-19:55:06.649|56=CLIENT|58=Incorrect BeginString|10=126|
20241015-19:55:06.649564000 : 8=FIX.4.2|9=56|35=5|34=46|49=CLIENT|52=20241015-19:55:06.649|56=SERVER|10=181|
20241015-22:24:39.708004000 : 8=FIX.4.2|9=68|35=A|34=48|49=CLIENT|52=20241015-22:24:39.707|56=SERVER|98=0|108=30|10=214|
20241015-22:24:39.708089000 : 8=FIX.4.2|9=68|35=A|34=15|49=SERVER|52=20241015-22:24:39.708|56=CLIENT|98=0|108=30|10=209|
20241015-22:24:39.708152000 : 8=FIX.4.2|9=66|35=2|34=16|49=SERVER|52=20241015-22:24:39.708|56=CLIENT|7=15|16=0|10=088|
20241015-22:24:39.708284000 : 8=FIX.4.2|9=99|35=4|34=15|43=Y|49=CLIENT|52=20241015-22:24:39.708|56=SERVER|122=20241015-22:24:39.708|36=49|123=Y|10=244|
20241017-19:11:23.826940000 : 8=FIX.4.2|9=67|35=A|34=1|49=CLIENT|52=20241017-19:11:23.826|56=SERVER|98=0|108=30|10=153|
20241017-19:11:23.827590000 : 8=FIX.4.2|9=67|35=A|34=1|49=SERVER|52=20241017-19:11:23.827|56=CLIENT|98=0|108=30|10=154|
20241017-19:27:52.691467000 : 8=FIX.4.2|9=67|35=A|34=2|49=CLIENT|52=20241017-19:27:52.691|56=SERVER|98=0|108=30|10=163|
20241017-19:27:52.691529000 : 8=FIX.4.2|9=67|35=A|34=2|49=SERVER|52=20241017-19:27:52.691|56=CLIENT|98=0|108=30|10=163|
20241023-15:51:18.183516000 : 8=FIX.4.2|9=67|35=A|34=1|49=CLIENT|52=20241023-15:51:18.183|56=SERVER|98=0|108=30|10=150|
20241023-15:51:18.183947000 : 8=FIX.4.2|9=67|35=A|34=1|49=SERVER|52=20241023-15:51:18.183|56=CLIENT|98=0|108=30|10=150|
20241023-15:51:48.124829000 : 8=FIX.4.2|9=55|35=0|34=2|49=SERVER|52=20241023-15:51:48.124|56=CLIENT|10=104|
20241023-15:51:48.125411000 : 8=FIX.4.2|9=55|35=0|34=2|49=CLIENT|52=20241023-15:51:48.125|56=SERVER|10=105|
20241023-15:57:47.908895000 : 8=FIX.4.2|9=67|35=A|34=3|49=CLIENT|52=20241023-15:57:47.908|56=SERVER|98=0|108=30|10=165|
20241023-15:57:47.908960000 : 8=FIX.4.2|9=67|35=A|34=3|49=SERVER|52=20241023-15:57:47.908|56=CLIENT|98=0|108=30|10=165|
20241023-15:58:13.794968000 : 8=FIX.4.2|9=67|35=A|34=4|49=CLIENT|52=20241023-15:58:13.794|56=SERVER|98=0|108=30|10=163|
20241023-15:58:13.795036000 : 8=FIX.4.2|9=67|35=A|34=4|49=SERVER|52=20241023-15:58:13.795|56=CLIENT|98=0|108=30|10=164|
