8=FIX.4.2|9=67|35=A|34=1|49=CLIENT|52=20241023-15:51:18.183|56=SERVER|98=0|108=30|10=150|8=FIX.4.2|9=55|35=0|34=2|49=CLIENT|52=20241023-15:51:48.125|56=SERVER|10=105|8=FIX.4.2|9=67|35=A|34=3|49=CLIENT|52=20241023-15:57:47.908|56=SERVER|98=0|108=30|10=165|8=FIX.4.2|9=67|35=A|34=4|49=CLIENT|52=20241023-15:58:13.794|56=SERVER|98=0|108=30|10=163|